:10000000002000101D010000950100009501000076
:1000100000000000000000000000000000000000E0
:10002000000000000000000000000000950100003A
:1000300000000000000000009501000071040000B5
:100040009501000095010000950100009501000058
:100050009501000095010000950100009501000048
:100060009501000095010000950100009501000038
:100070009501000095010000950100005507000062
:100080009501000095010000950100009501000018
:100090009501000095010000950100009501000008
:1000A00095010000950100009501000095010000F8
:1000B00095010000950100009501000095010000E8
:1000C00080B500AF00F02AF8C046BD4680BDC046EE
:1000D00080B500AF0B4B00221A600B4B23221A6035
:1000E0000A4B0A4A126880218A431A60084B01228F
:1000F0001A60084B03221A60074B01221A60C0469F
:10010000BD4680BD408004400880044038820440E1
:1001100044800440708004407480044080B584B002
:1001200000AF174BFB60174BBB60174A154BD31A38
:100130007B6007E0BB685A1CBA60FA68511CF96022
:1001400012781A707B685A1E7A60002BF2D10F4B1E
:10015000BB600F4A0D4BD31A7B6004E0BB685A1C8E
:10016000BA6000221A707B685A1E7A60002BF5D1A3
:10017000FFF7AEFF00F0BAFDC046BD4604B080BD3B
:100180005E0F0000000000100400001004000010CA
:100190002C00001080B500AFFEE7C04680B500AF70
:1001A000084B084A126808490A431A60074B0022A4
:1001B0001A60074B80221A60064B00221A60C04664
:1001C000BD4680BD80800440400001005040044096
:1001D00000800050FC3F005080B500AF024B8022F1
:1001E0001A60C046BD4680BDFC3F005080B500AFE0
:1001F000024B00221A60C046BD4680BDFC3F005045
:1002000080B500AF144B144A1268802149020A439A
:100210001A60124B01221A60114B31221A600E4BE8
:100220000D4A1268802149010A431A600D4B0122D0
:100230001A600D4B83221A600C4B4E221A600C4B35
:1002400000221A60084B03221A600A4B01221A602E
:10025000C046BD4680BDC04680800440A8400440E2
:10026000A4400440988004400C800040008000407E
:10027000048000400880004080B500AF024B1B683E
:10028000DBB21800BD4680BD0080004080B500AFE5
:10029000034B1B681A00012313401800BD4680BDA4
:1002A0001480004080B582B000AF0200FB1D1A70C0
:1002B000FB1D1B780A2B08D1C046124B1B6820225D
:1002C0001340FAD0104B0D221A60C0460D4B1B682C
:1002D00020221340FAD00C4BFA1D12781A60FB1D35
:1002E0001B780D2B08D1C046064B1B6820221340FB
:1002F000FAD0054B0A221A60FB1D1B781800BD4678
:1003000002B080BD148000400080004080B500AF86
:10031000C046FFF7BBFF031EFBD0034B1B68DBB2DD
:100320001800BD4680BDC0460080004080B584B046
:1003300000AF78600F23FB187A6812781A700DE00E
:100340000F23FB181B781800FFF7ACFF7B68013305
:100350007B600F23FB187A6812781A700F23FB1842
:100360001B78002BECD1C046BD4604B080BDC04612
:1003700080B586B000AF7860F0237B6104233B61D9
:100380007B687A691A403B69DA400E23FB181A80B1
:100390000E23FB180E22BA18128830321A800E2350
:1003A000FB181B88392B06D90E23FB180E22BA180E
:1003B000128807321A800E23FB181B88DBB2180044
:1003C000FFF770FF3B69043B3B617B691B097B6165
:1003D0007B69002BD4D1C046BD4606B080BDC04667
:1003E00090B58FB000AF78600823FB181F4A13CA7E
:1003F00013C313CA13C313CA13C312681A600023AA
:100400007B6302E07B6B01337B630823FB187A6B11
:100410009200D2587B689A42F4D820E000233B63D4
:100420000AE00823FB187A6B9200D3587A68D31A33
:100430007B603B6B01333B630823FB187A6B9200B4
:10044000D2587B689A42ECD93B6B30333B633B6BB1
:10045000DBB21800FFF726FF7B6B01337B637B6BFE
:10046000092BDBDDC046BD460FB090BDB80D0000C6
:1004700080B500AF034B1B685A1C024B1A60C04684
:10048000BD4680BD0400001080B582B000AF78602A
:10049000084B00221A60084B7A68013A1A60074B31
:1004A00000221A60034B07221A60C046BD4602B004
:1004B00080BDC04610E000E014E000E018E000E07D
:1004C00080B584B000AF7860074B1A687B68D3189A
:1004D000FB6000E030BF044B1B68FA689A42F9DC0D
:1004E000C046BD4604B080BD0400001080B500AF1A
:1004F000022000F003F8C046BD4680BD90B587B02D
:1005000000AF0200FB1D1A70674B674A126867490B
:100510000A401A60644BFA1D127852B2120201218D
:100520000A431A60624B624A126860490A401A60C4
:100530005F4BFA1D127852B2120201210A431A606F
:100540005C4B5C4A126820210A431A605A4B5A4A93
:10055000126802210A431A601723FB180F221A702F
:100560001723FB181B787F2B0AD8544B1722BA1875
:10057000127811001F220A40012191400A001A60DE
:100580001623FB180F221A7000233B611623FB1859
:100590001B787F2B2ED84A4BFB601623FB181B7849
:1005A0005BB29B089B00FA68D3181622BA1812781F
:1005B00052B292089200F9688A18126816217918C6
:1005C0000978080003210140C900FF20884001008C
:1005D000C94311403A699201FF2010401622BA180F
:1005E0001278140003222240D200904002000A43F5
:1005F0001A6033E0334BBB601623FB181B781A00DC
:100600000F231340083B9B089B00BA68D31816229F
:10061000BA18127811000F220A40083A9208920084
:10062000B9688A1812681621791809780800032118
:100630000140C900FF2088400100C94311403A69C8
:100640009201FF2010401622BA18127814000322DB
:100650002240D200904002000A431A601523FB1882
:100660000F221A701523FB181B787F2B0AD8164B04
:100670001522BA18127811001F220A400121914058
:100680000A001A608023DB0540221A600F4B2C22DF
:100690001A600F4B16221A600E4B16221A60C046C3
:1006A000BD4607B090BDC04630400440FCFCFFFF93
:1006B00034400440808004400480044080E200E034
:1006C00000E400E01CED00E000E100E01800004064
:1006D000100000401400004080B582B000AF786088
:1006E000074B7A681A60064B1B6800221A74802335
:1006F000DB0520221A60C046BD4602B080BDC04660
:100700000800001080B582B000AF8023DB05142202
:100710001A600E4B08221A60FB1D0F221A70FB1D77
:100720001B787F2B0DD80A4BFA1D127811001F225F
:100730000A40012191400A001A60BFF34F8FBFF3B6
:100740006F8FC046BD4602B080BDC0461800004055
:1007500080E100E080B582B000AF00237B60AD4B4C
:100760001B68F82213407B607B68582B00D94DE151
:100770007B689A00A84BD3181B689F468023DB0533
:1007800014221A60A54B08221A60A54B1B68FF2291
:100790001A743AE1A34AA24B1B681B785900A04B7C
:1007A0001B685B781800012303400B431360802310
:1007B000DB0504221A60994B28221A60984B1A68AC
:1007C000974B1B685B889380954B1B68944A126813
:1007D0009268DA6019E1934A914B1B681B785900C3
:1007E0008F4B1B685B781800012303400B43136099
:1007F0008023DB0504221A60884B28221A60884B6C
:100800001B68874A12685269DA60854B1A68844B04
:100810001B681B8B9380F8E0814B1B68DB7E002BF1
:1008200008D08023DB0514221A607D4B1B6801224F
:100830001A740EE07B4A7A4B1B68DB681B781360E6
:100840008023DB0504221A60754B1B68DA680132CD
:10085000DA60724B08221A60D7E0714B1B68DB7EAE
:10086000002B04D08023DB0524221A6007E08023BC
:10087000DB0514221A606A4B1B68FF221A74674B4F
:1008800008221A60C1E0664B1B689A88013A92B24E
:100890009A80634B1B689B88002B3CD1604B1B6884
:1008A0001B7F002B08D05E4B1B6801225A708023EF
:1008B000DB0524221A603DE0594B1B689B7E5BB22E
:1008C000002B1FD0564B1B68554A12685269DA60DC
:1008D000534B1A68524B1B681B8B9380504B1B6801
:1008E00000229A764F4A4E4B1B68DB681B781360D8
:1008F0008023DB0504221A60494B1B68DA68013249
:10090000DA6017E08023DB0514221A60444B1B6871
:1009100001221A740EE0434A414B1B68DB681B78C6
:1009200013608023DB0504221A603D4B1B68DA68E4
:100930000132DA60394B08221A6066E08023DB0559
:1009400014221A60354B08221A60354B1B68FF22AF
:100950001A745AE08023DB0524221A602F4B0822E8
:100960001A6052E02E4B1B689B88012B03D12B4B46
:100970000C221A6049E08023DB0504221A60274B11
:1009800008221A6041E08023DB0514221A60234B01
:1009900008221A60224B1B68FF221A7435E0204B94
:1009A0001B68DA681F4B1B68DBB213701C4B1B689B
:1009B0009A88013A92B29A80194B1B689B88012B46
:1009C00003D1164B0C221A6006E08023DB050422BB
:1009D0001A60124B08221A60114B1B68DA68013248
:1009E000DA6012E00E4B1B68DA680E4B1B68DBB254
:1009F00013708023DB0514221A60084B08221A604A
:100A0000074B1B6801221A74C046C046C046BD464B
:100A100002B080BD04000040E00D0000180000405E
:100A2000080000100800004080B584B000AF02004C
:100A30003960FB1D1A700C23FB1800221A700C235E
:100A4000F918FB1D1B780122180000F009F80C238F
:100A5000FB181A783B681A70C046BD4604B080BDCA
:100A600080B584B000AFB9607A600F23FB18021C18
:100A70001A70134B0F22BA1812781A70104B0122F9
:100A80005A707B689AB20E4B5A800D4BBA689A60C6
:100A90000B4B00229A760A4B0022DA76084B002292
:100AA0001A77074B1800FFF717FE00E0C046044B0B
:100AB0001B7C5BB2002BF9D0C046BD4604B080BDA4
:100AC0000C00001080B586B004AF02003960FB1D39
:100AD0001A703968FB1D18780023029300230193D4
:100AE000002300930023002200F082F8C046BD4698
:100AF00002B080BD90B589B004AFB9607A603B6048
:100B00000F23FB18021C1A703B68DBB27C68B968C3
:100B10000F22BA181078012202920022019200934B
:100B20002300002200F064F8C046BD4605B090BD29
:100B300080B584B000AF39601100FB1D021C1A7033
:100B4000BB1D0A1C1A700C23FB1800221A700C2300
:100B5000FB18BA1D12781A700C23FA183968FB1D9D
:100B60001878012300F004F8C046BD4604B080BDEB
:100B700090B589B004AFB9607A6019000F23FB18F3
:100B8000021C1A700E23FB180A1C1A700E23FB1885
:100B90001B78DAB2402A00D94023DBB27C68B968FE
:100BA0000F22BA18107800220292002201920093BC
:100BB0002300012200F01CF8C046BD4605B090BDE0
:100BC00080B586B004AF0200FB1D1A70FB1D1878BB
:100BD00000230293012301930023009300230022AA
:100BE000002100F005F8C046BD4602B080BDC046F9
:100BF00080B586B000AFB9607A603B600F23FB1808
:100C0000021C1A701423FB1800221A701423FB18FC
:100C100000225A701423FB1800229A70314B0F22C5
:100C2000BA1812781A702F4B00225A702E4B1B687C
:100C30009AB22C4B5A802B4B1422BA189A607B68BC
:100C40005AB2284B9A76274B3A685A612023FB18F0
:100C50001B789AB2234B1A83224B2422BA1812789B
:100C6000DA76204B2822BA1812781A771E4B1B68A6
:100C7000022B09D0032B13D0012B23D1BB68DAB28E
:100C80001423FB181A701DE0BB681B12DAB2142380
:100C9000FB181A70BB68DAB21423FB185A7011E003
:100CA000BB681B14DAB21423FB181A70BB681B1242
:100CB000DAB21423FB185A70BB68DAB21423FB189B
:100CC0009A70C046074B1800FFF706FD00E0C046CB
:100CD000044B1B7C5BB2002BF9D0C046BD4606B06E
:100CE00080BDC0460C0000100000001080B592B01E
:100CF00000AFFFF753FAFFF783FAFFF7F7FB2A4B32
:100D00001800FFF7C1FB294B1800FFF70FFBC023AA
:100D10009B011800FFF764FB254B1800FFF706FB4B
:100D200000237B6413E07B6CC022920194466344F1
:100D30007A6CD2B219005020FFF7FAFE0520FFF7B7
:100D4000BFFB5020FFF73CFF7B6C01337B647B6C67
:100D50003F2BE8DDC0239B0119005020FFF7B2FEB6
:100D60003B00402219005020FFF77AFE00233B642D
:100D70000DE03A003B6CD3181B781800FFF7F8FA27
:100D80000C4B1800FFF7D2FA3B6C01333B643B6C11
:100D90003F2BEEDD064B1800FFF7C8FA00231800C2
:100DA000BD4612B080BDC04680BB0000440F0000AD
:080DB000580F00005C0F000069
:100DB80000CA9A3B00E1F5058096980040420F0072
:100DC800A086010010270000E8030000640000006E
:100DD8000A000000010000007C0700000C0A000067
:100DE8000C0A00000C0A00000C0A00000C0A0000A3
:100DF8000C0A00000C0A0000940700000C0A00000E
:100E08000C0A00000C0A00000C0A00000C0A000082
:100E18000C0A00000C0A0000D60700000C0A0000AB
:100E28000C0A00000C0A00000C0A00000C0A000062
:100E38000C0A00000C0A0000180800000C0A000048
:100E48000C0A00000C0A00000C0A00000C0A000042
:100E58000C0A00000C0A00005A0800000C0A0000E6
:100E68000C0A00000C0A00000C0A00000C0A000022
:100E78000C0A00000C0A0000860800000C0A00009A
:100E88000C0A00000C0A00000C0A00000C0A000002
:100E98000C0A00000C0A00003C0900000C0A0000C3
:100EA8000C0A00000C0A00000C0A00000C0A0000E2
:100EB8000C0A00000C0A0000540900000C0A00008B
:100EC8000C0A00000C0A00000C0A00000C0A0000C2
:100ED8000C0A00000C0A0000640900000C0A00005B
:100EE8000C0A00000C0A00000C0A00000C0A0000A2
:100EF8000C0A00000C0A0000860900000C0A000019
:100F08000C0A00000C0A00000C0A00000C0A000081
:100F18000C0A00000C0A00009E0900000C0A0000E0
:100F28000C0A00000C0A00000C0A00000C0A000061
:100F38000C0A00000C0A0000E409000077726974CA
:100F48006520746F20616464726573733A200000D1
:060F58000A000000200069
:040F5E00020000008D
:04000003000000C039
:00000001FF
