:10000000002000101D010000950100009501000076
:1000100000000000000000000000000000000000E0
:10002000000000000000000000000000950100003A
:10003000000000000000000095010000000000002A
:100040009501000095010000950100009501000058
:100050009501000095010000950100009501000048
:100060009501000095010000950100009501000038
:100070009501000095010000950100009501000028
:100080009501000095010000950100009501000018
:100090009501000095010000950100009501000008
:1000A00095010000950100009501000095010000F8
:1000B00095010000950100009501000095010000E8
:1000C00080B500AF00F02AF8C046BD4680BDC046EE
:1000D00080B500AF0B4B00221A600B4B23221A6035
:1000E0000A4B0A4A126880218A431A60084B01228F
:1000F0001A60084B03221A60074B01221A60C0469F
:10010000BD4680BD408004400880044038820440E1
:1001100044800440708004407480044080B584B002
:1001200000AF174BFB60174BBB60174A154BD31A38
:100130007B6007E0BB685A1CBA60FA68511CF96022
:1001400012781A707B685A1E7A60002BF2D10F4B1E
:10015000BB600F4A0D4BD31A7B6004E0BB685A1C8E
:10016000BA6000221A707B685A1E7A60002BF5D1A3
:10017000FFF7AEFF00F07CF9C046BD4604B080BD7D
:10018000FD0400000000001000000010000000103E
:100190000000001080B500AFFEE7C04680B500AF9C
:1001A000084B084A126808490A431A60074B0022A4
:1001B0001A60074B80221A60064B00221A60C04664
:1001C000BD4680BD80800440400001005040044096
:1001D00000800050FC3F005080B500AF024B8022F1
:1001E0001A60C046BD4680BDFC3F005080B500AFE0
:1001F000024B00221A60C046BD4680BDFC3F005045
:1002000080B500AF144B144A1268802149020A439A
:100210001A60124B01221A60114B31221A600E4BE8
:100220000D4A1268802149010A431A600D4B0122D0
:100230001A600D4B83221A600C4B4E221A600C4B35
:1002400000221A60084B03221A600A4B01221A602E
:10025000C046BD4680BDC04680800440A8400440E2
:10026000A4400440988004400C800040008000407E
:10027000048000400880004080B500AF024B1B683E
:10028000DBB21800BD4680BD0080004080B500AFE5
:10029000034B1B681A00012313401800BD4680BDA4
:1002A0001480004080B582B000AF0200FB1D1A70C0
:1002B000FB1D1B780A2B08D1C046124B1B6820225D
:1002C0001340FAD0104B0D221A60C0460D4B1B682C
:1002D00020221340FAD00C4BFA1D12781A60FB1D35
:1002E0001B780D2B08D1C046064B1B6820221340FB
:1002F000FAD0054B0A221A60FB1D1B781800BD4678
:1003000002B080BD148000400080004080B500AF86
:10031000C046FFF7BBFF031EFBD0034B1B68DBB2DD
:100320001800BD4680BDC0460080004080B584B046
:1003300000AF78600F23FB187A6812781A700DE00E
:100340000F23FB181B781800FFF7ACFF7B68013305
:100350007B600F23FB187A6812781A700F23FB1842
:100360001B78002BECD1C046BD4604B080BDC04612
:1003700080B586B000AF7860F0237B6104233B61D9
:100380007B687A691A403B69DA400E23FB181A80B1
:100390000E23FB180E22BA18128830321A800E2350
:1003A000FB181B88392B06D90E23FB180E22BA180E
:1003B000128807321A800E23FB181B88DBB2180044
:1003C000FFF770FF3B69043B3B617B691B097B6165
:1003D0007B69002BD4D1C046BD4606B080BDC04667
:1003E00090B58FB000AF78600823FB181F4A13CA7E
:1003F00013C313CA13C313CA13C312681A600023AA
:100400007B6302E07B6B01337B630823FB187A6B11
:100410009200D2587B689A42F4D820E000233B63D4
:100420000AE00823FB187A6B9200D3587A68D31A33
:100430007B603B6B01333B630823FB187A6B9200B4
:10044000D2587B689A42ECD93B6B30333B633B6BB1
:10045000DBB21800FFF726FF7B6B01337B637B6BFE
:10046000092BDBDDC046BD460FB090BDC4040000C3
:1004700080B582B000AFFFF791FEFFF7C1FEFFF736
:10048000ABFE0D4B1800FFF751FF0C4B7B607B68F8
:10049000013B7B607B68002BF9D1FFF7A7FE084B7F
:1004A0001800FFF743FF054B7B607B68013B7B60D7
:1004B0007B68002BF9D1E2E7EC04000040420F001A
:0404C000F404000040
:1004C40000CA9A3B00E1F5058096980040420F006F
:1004D400A086010010270000E8030000640000006B
:1004E4000A000000010000006C6564206F6E0A00C1
:0904F4006C6564206F66660A0065
:04000003000000C039
:00000001FF
